{
  "_format": "hh-sol-artifact-1",
  "contractName": "FhenixOGNFT",
  "sourceName": "contracts/FhenixOGNFT_Simple.sol",
  "abi": [
    {
      "inputs": [
        {
          "internalType": "string",
          "name": "name",
          "type": "string"
        },
        {
          "internalType": "string",
          "name": "symbol",
          "type": "string"
        },
        {
          "internalType": "string",
          "name": "baseURI",
          "type": "string"
        }
      ],
      "stateMutability": "nonpayable",
      "type": "constructor"
    },
    {
      "inputs": [
        {
          "internalType": "address",
          "name": "sender",
          "type": "address"
        },
        {
          "internalType": "uint256",
          "name": "tokenId",
          "type": "uint256"
        },
        {
          "internalType": "address",
          "name": "owner",
          "type": "address"
        }
      ],
      "name": "ERC721IncorrectOwner",
      "type": "error"
    },
    {
      "inputs": [
        {
          "internalType": "address",
          "name": "operator",
          "type": "address"
        },
        {
          "internalType": "uint256",
          "name": "tokenId",
          "type": "uint256"
        }
      ],
      "name": "ERC721InsufficientApproval",
      "type": "error"
    },
    {
      "inputs": [
        {
          "internalType": "address",
          "name": "approver",
          "type": "address"
        }
      ],
      "name": "ERC721InvalidApprover",
      "type": "error"
    },
    {
      "inputs": [
        {
          "internalType": "address",
          "name": "operator",
          "type": "address"
        }
      ],
      "name": "ERC721InvalidOperator",
      "type": "error"
    },
    {
      "inputs": [
        {
          "internalType": "address",
          "name": "owner",
          "type": "address"
        }
      ],
      "name": "ERC721InvalidOwner",
      "type": "error"
    },
    {
      "inputs": [
        {
          "internalType": "address",
          "name": "receiver",
          "type": "address"
        }
      ],
      "name": "ERC721InvalidReceiver",
      "type": "error"
    },
    {
      "inputs": [
        {
          "internalType": "address",
          "name": "sender",
          "type": "address"
        }
      ],
      "name": "ERC721InvalidSender",
      "type": "error"
    },
    {
      "inputs": [
        {
          "internalType": "uint256",
          "name": "tokenId",
          "type": "uint256"
        }
      ],
      "name": "ERC721NonexistentToken",
      "type": "error"
    },
    {
      "inputs": [
        {
          "internalType": "address",
          "name": "owner",
          "type": "address"
        }
      ],
      "name": "OwnableInvalidOwner",
      "type": "error"
    },
    {
      "inputs": [
        {
          "internalType": "address",
          "name": "account",
          "type": "address"
        }
      ],
      "name": "OwnableUnauthorizedAccount",
      "type": "error"
    },
    {
      "anonymous": false,
      "inputs": [
        {
          "indexed": true,
          "internalType": "address",
          "name": "owner",
          "type": "address"
        },
        {
          "indexed": true,
          "internalType": "address",
          "name": "approved",
          "type": "address"
        },
        {
          "indexed": true,
          "internalType": "uint256",
          "name": "tokenId",
          "type": "uint256"
        }
      ],
      "name": "Approval",
      "type": "event"
    },
    {
      "anonymous": false,
      "inputs": [
        {
          "indexed": true,
          "internalType": "address",
          "name": "owner",
          "type": "address"
        },
        {
          "indexed": true,
          "internalType": "address",
          "name": "operator",
          "type": "address"
        },
        {
          "indexed": false,
          "internalType": "bool",
          "name": "approved",
          "type": "bool"
        }
      ],
      "name": "ApprovalForAll",
      "type": "event"
    },
    {
      "anonymous": false,
      "inputs": [
        {
          "indexed": false,
          "internalType": "uint256",
          "name": "_fromTokenId",
          "type": "uint256"
        },
        {
          "indexed": false,
          "internalType": "uint256",
          "name": "_toTokenId",
          "type": "uint256"
        }
      ],
      "name": "BatchMetadataUpdate",
      "type": "event"
    },
    {
      "anonymous": false,
      "inputs": [
        {
          "indexed": false,
          "internalType": "uint256",
          "name": "_tokenId",
          "type": "uint256"
        }
      ],
      "name": "MetadataUpdate",
      "type": "event"
    },
    {
      "anonymous": false,
      "inputs": [
        {
          "indexed": true,
          "internalType": "address",
          "name": "minter",
          "type": "address"
        },
        {
          "indexed": true,
          "internalType": "uint256",
          "name": "tokenId",
          "type": "uint256"
        },
        {
          "indexed": false,
          "internalType": "string",
          "name": "tokenURI",
          "type": "string"
        },
        {
          "indexed": false,
          "internalType": "uint256",
          "name": "rarity",
          "type": "uint256"
        }
      ],
      "name": "NFTMinted",
      "type": "event"
    },
    {
      "anonymous": false,
      "inputs": [
        {
          "indexed": true,
          "internalType": "address",
          "name": "previousOwner",
          "type": "address"
        },
        {
          "indexed": true,
          "internalType": "address",
          "name": "newOwner",
          "type": "address"
        }
      ],
      "name": "OwnershipTransferred",
      "type": "event"
    },
    {
      "anonymous": false,
      "inputs": [
        {
          "indexed": true,
          "internalType": "address",
          "name": "from",
          "type": "address"
        },
        {
          "indexed": true,
          "internalType": "address",
          "name": "to",
          "type": "address"
        },
        {
          "indexed": true,
          "internalType": "uint256",
          "name": "tokenId",
          "type": "uint256"
        }
      ],
      "name": "Transfer",
      "type": "event"
    },
    {
      "inputs": [],
      "name": "MAX_SUPPLY",
      "outputs": [
        {
          "internalType": "uint256",
          "name": "",
          "type": "uint256"
        }
      ],
      "stateMutability": "view",
      "type": "function"
    },
    {
      "inputs": [],
      "name": "MINT_PRICE",
      "outputs": [
        {
          "internalType": "uint256",
          "name": "",
          "type": "uint256"
        }
      ],
      "stateMutability": "view",
      "type": "function"
    },
    {
      "inputs": [
        {
          "internalType": "address",
          "name": "to",
          "type": "address"
        },
        {
          "internalType": "uint256",
          "name": "tokenId",
          "type": "uint256"
        }
      ],
      "name": "approve",
      "outputs": [],
      "stateMutability": "nonpayable",
      "type": "function"
    },
    {
      "inputs": [
        {
          "internalType": "uint256",
          "name": "",
          "type": "uint256"
        }
      ],
      "name": "attributes",
      "outputs": [
        {
          "internalType": "uint256",
          "name": "",
          "type": "uint256"
        }
      ],
      "stateMutability": "view",
      "type": "function"
    },
    {
      "inputs": [
        {
          "internalType": "address",
          "name": "owner",
          "type": "address"
        }
      ],
      "name": "balanceOf",
      "outputs": [
        {
          "internalType": "uint256",
          "name": "",
          "type": "uint256"
        }
      ],
      "stateMutability": "view",
      "type": "function"
    },
    {
      "inputs": [
        {
          "internalType": "uint256",
          "name": "tokenId",
          "type": "uint256"
        }
      ],
      "name": "getApproved",
      "outputs": [
        {
          "internalType": "address",
          "name": "",
          "type": "address"
        }
      ],
      "stateMutability": "view",
      "type": "function"
    },
    {
      "inputs": [
        {
          "internalType": "uint256",
          "name": "tokenId",
          "type": "uint256"
        }
      ],
      "name": "getAttribute",
      "outputs": [
        {
          "internalType": "uint256",
          "name": "",
          "type": "uint256"
        }
      ],
      "stateMutability": "view",
      "type": "function"
    },
    {
      "inputs": [],
      "name": "getCurrentSupply",
      "outputs": [
        {
          "internalType": "uint256",
          "name": "",
          "type": "uint256"
        }
      ],
      "stateMutability": "view",
      "type": "function"
    },
    {
      "inputs": [
        {
          "internalType": "uint256",
          "name": "tokenId",
          "type": "uint256"
        }
      ],
      "name": "getRarity",
      "outputs": [
        {
          "internalType": "uint256",
          "name": "",
          "type": "uint256"
        }
      ],
      "stateMutability": "view",
      "type": "function"
    },
    {
      "inputs": [
        {
          "internalType": "address",
          "name": "owner",
          "type": "address"
        },
        {
          "internalType": "address",
          "name": "operator",
          "type": "address"
        }
      ],
      "name": "isApprovedForAll",
      "outputs": [
        {
          "internalType": "bool",
          "name": "",
          "type": "bool"
        }
      ],
      "stateMutability": "view",
      "type": "function"
    },
    {
      "inputs": [
        {
          "internalType": "uint256",
          "name": "rarity",
          "type": "uint256"
        },
        {
          "internalType": "uint256",
          "name": "attribute",
          "type": "uint256"
        }
      ],
      "name": "mint",
      "outputs": [
        {
          "internalType": "uint256",
          "name": "",
          "type": "uint256"
        }
      ],
      "stateMutability": "payable",
      "type": "function"
    },
    {
      "inputs": [],
      "name": "name",
      "outputs": [
        {
          "internalType": "string",
          "name": "",
          "type": "string"
        }
      ],
      "stateMutability": "view",
      "type": "function"
    },
    {
      "inputs": [],
      "name": "owner",
      "outputs": [
        {
          "internalType": "address",
          "name": "",
          "type": "address"
        }
      ],
      "stateMutability": "view",
      "type": "function"
    },
    {
      "inputs": [
        {
          "internalType": "uint256",
          "name": "tokenId",
          "type": "uint256"
        }
      ],
      "name": "ownerOf",
      "outputs": [
        {
          "internalType": "address",
          "name": "",
          "type": "address"
        }
      ],
      "stateMutability": "view",
      "type": "function"
    },
    {
      "inputs": [
        {
          "internalType": "uint256",
          "name": "",
          "type": "uint256"
        }
      ],
      "name": "rarityScores",
      "outputs": [
        {
          "internalType": "uint256",
          "name": "",
          "type": "uint256"
        }
      ],
      "stateMutability": "view",
      "type": "function"
    },
    {
      "inputs": [],
      "name": "renounceOwnership",
      "outputs": [],
      "stateMutability": "nonpayable",
      "type": "function"
    },
    {
      "inputs": [
        {
          "internalType": "address",
          "name": "from",
          "type": "address"
        },
        {
          "internalType": "address",
          "name": "to",
          "type": "address"
        },
        {
          "internalType": "uint256",
          "name": "tokenId",
          "type": "uint256"
        }
      ],
      "name": "safeTransferFrom",
      "outputs": [],
      "stateMutability": "nonpayable",
      "type": "function"
    },
    {
      "inputs": [
        {
          "internalType": "address",
          "name": "from",
          "type": "address"
        },
        {
          "internalType": "address",
          "name": "to",
          "type": "address"
        },
        {
          "internalType": "uint256",
          "name": "tokenId",
          "type": "uint256"
        },
        {
          "internalType": "bytes",
          "name": "data",
          "type": "bytes"
        }
      ],
      "name": "safeTransferFrom",
      "outputs": [],
      "stateMutability": "nonpayable",
      "type": "function"
    },
    {
      "inputs": [
        {
          "internalType": "address",
          "name": "operator",
          "type": "address"
        },
        {
          "internalType": "bool",
          "name": "approved",
          "type": "bool"
        }
      ],
      "name": "setApprovalForAll",
      "outputs": [],
      "stateMutability": "nonpayable",
      "type": "function"
    },
    {
      "inputs": [
        {
          "internalType": "string",
          "name": "baseURI",
          "type": "string"
        }
      ],
      "name": "setBaseURI",
      "outputs": [],
      "stateMutability": "nonpayable",
      "type": "function"
    },
    {
      "inputs": [
        {
          "internalType": "bytes4",
          "name": "interfaceId",
          "type": "bytes4"
        }
      ],
      "name": "supportsInterface",
      "outputs": [
        {
          "internalType": "bool",
          "name": "",
          "type": "bool"
        }
      ],
      "stateMutability": "view",
      "type": "function"
    },
    {
      "inputs": [],
      "name": "symbol",
      "outputs": [
        {
          "internalType": "string",
          "name": "",
          "type": "string"
        }
      ],
      "stateMutability": "view",
      "type": "function"
    },
    {
      "inputs": [
        {
          "internalType": "uint256",
          "name": "tokenId",
          "type": "uint256"
        }
      ],
      "name": "tokenURI",
      "outputs": [
        {
          "internalType": "string",
          "name": "",
          "type": "string"
        }
      ],
      "stateMutability": "view",
      "type": "function"
    },
    {
      "inputs": [
        {
          "internalType": "address",
          "name": "from",
          "type": "address"
        },
        {
          "internalType": "address",
          "name": "to",
          "type": "address"
        },
        {
          "internalType": "uint256",
          "name": "tokenId",
          "type": "uint256"
        }
      ],
      "name": "transferFrom",
      "outputs": [],
      "stateMutability": "nonpayable",
      "type": "function"
    },
    {
      "inputs": [
        {
          "internalType": "address",
          "name": "newOwner",
          "type": "address"
        }
      ],
      "name": "transferOwnership",
      "outputs": [],
      "stateMutability": "nonpayable",
      "type": "function"
    },
    {
      "inputs": [],
      "name": "withdraw",
      "outputs": [],
      "stateMutability": "nonpayable",
      "type": "function"
    }
  ],
  "bytecode": "0x60806040523461045757611e31803803806100198161045b565b92833981016060828203126104575781516001600160401b0391908281116104575781610047918501610480565b92602090818101518481116104575783610062918301610480565b926040820151858111610457576100799201610480565b908451928484116102a7575f54936001968786811c9616801561044d575b84871014610289578190601f968781116103ff575b5084908783116001146103a0575f92610395575b50505f19600383901b1c191690871b175f555b8051908582116102a7578654908782811c9216801561038b575b8483101461028957818684931161033d575b5083908683116001146102de575f926102d3575b50505f19600383901b1c191690861b1785555b33156102bb5760078054336001600160a01b0319821681179092556001600160a01b03167f8be0079c531659141344cd1fd0a4f28419497f9722a3daafe3b4186f6b6457e05f80a381519384116102a7576009548581811c9116801561029d575b8282101461028957838111610245575b50809284116001146101e157509282939183925f946101d6575b50501b915f199060031b1c1916176009555b5f60085560405161195f90816104d28239f35b015192505f806101b1565b919083601f19811660095f52845f20945f905b8883831061022b5750505010610213575b505050811b016009556101c3565b01515f1960f88460031b161c191690555f8080610205565b8587015188559096019594850194879350908101906101f4565b60095f52815f208480870160051c820192848810610280575b0160051c019086905b828110610275575050610197565b5f8155018690610267565b9250819261025e565b634e487b7160e01b5f52602260045260245ffd5b90607f1690610187565b634e487b7160e01b5f52604160045260245ffd5b604051631e4fbdf760e01b81525f6004820152602490fd5b015190505f80610113565b90889350601f19831691845f52855f20925f5b87828210610327575050841161030f575b505050811b018555610126565b01515f1960f88460031b161c191690555f8080610302565b8385015186558c979095019493840193016102f1565b909150875f52835f208680850160051c820192868610610382575b918a91869594930160051c01915b8281106103745750506100ff565b5f81558594508a9101610366565b92508192610358565b91607f16916100ed565b015190505f806100c0565b90899350601f198316915f8052865f20925f5b888282106103e957505084116103d1575b505050811b015f556100d3565b01515f1960f88460031b161c191690555f80806103c4565b8385015186558d979095019493840193016103b3565b9091505f8052845f208780850160051c820192878610610444575b918b91869594930160051c01915b8281106104365750506100ac565b5f81558594508b9101610428565b9250819261041a565b95607f1695610097565b5f80fd5b6040519190601f01601f191682016001600160401b038111838210176102a757604052565b81601f82011215610457578051906001600160401b0382116102a7576104af601f8301601f191660200161045b565b928284526020838301011161045757815f9260208093018386015e830101529056fe608060409080825260049081361015610016575f80fd5b5f3560e01c90816301ffc9a71461102b5750806306fdde0314610f7e578063081812fc14610f45578063095ea7b314610e695780631b2ef1ca146108b657806323b872dd1461089f5780632bd4e8c61461087757806332cb6b0c1461085b5780633ccfd60b146107d757806342842e0e146107a95780634875869714610764578063493fe80f1461071f5780634f3e1efc1461070157806355f804b31461058c5780636352211e1461055c57806370a0823114610507578063715018a6146104ac5780638da5cb5b1461048457806395d89b41146103a1578063a22cb46514610305578063b88d4fde14610298578063c002d23d14610277578063c87b56dd14610240578063d05dcc6a14610218578063e985e9c5146101ca5763f2fde38b1461013e575f80fd5b346101c65760203660031901126101c6576101576110d3565b9061016061163a565b6001600160a01b039182169283156101b0575050600754826001600160601b0360a01b821617600755167f8be0079c531659141344cd1fd0a4f28419497f9722a3daafe3b4186f6b6457e05f80a3005b905f6024925191631e4fbdf760e01b8352820152fd5b5f80fd5b82346101c657806003193601126101c6576020906101e66110d3565b6101ee6110e9565b9060018060a01b038091165f5260058452825f2091165f52825260ff815f20541690519015158152f35b5090346101c65760203660031901126101c657602091355f52600b8252805f20549051908152f35b5090346101c65760203660031901126101c65761026061027392356117ed565b90519182916020835260208301906110af565b0390f35b82346101c6575f3660031901126101c6576020905166038d7ea4c680008152f35b50346101c65760803660031901126101c6576102b26110d3565b6102ba6110e9565b6044359060643567ffffffffffffffff81116101c657366023820112156101c657610303948160246102f1933693013591016111a2565b926102fd8383836112c0565b33611666565b005b5090346101c657806003193601126101c65761031f6110d3565b90602435918215158093036101c6576001600160a01b031692831561038c5750335f526005602052805f20835f52602052805f2060ff1981541660ff8416179055519081527f17307eab39ab6107e8899845ad3d59bd9653f200f220920489ca2b5937696c3160203392a3005b836024925191630b61174360e31b8352820152fd5b82346101c6575f3660031901126101c6578051905f9082600192600154936103c8856111d8565b90818452602095866001821691825f14610462575050600114610407575b505061027392916103f8910385611164565b519282849384528301906110af565b9085925060015f527fb10e2d527612073b26eecdfd717e6a320cf44b4afac2b0732d9fcbe2b7fa0cf6915f925b82841061044a57505050820101816103f86103e6565b8054848a018601528895508794909301928101610434565b60ff19168682015292151560051b850190920192508391506103f890506103e6565b82346101c6575f3660031901126101c65760075490516001600160a01b039091168152602090f35b346101c6575f3660031901126101c6576104c461163a565b600780546001600160a01b031981169091555f906001600160a01b03167f8be0079c531659141344cd1fd0a4f28419497f9722a3daafe3b4186f6b6457e08280a3005b5090346101c65760203660031901126101c6576001600160a01b0361052a6110d3565b16801561054657602092505f5260038252805f20549051908152f35b81516322718ad960e21b81525f81850152602490fd5b5090346101c65760203660031901126101c65761057b60209235611499565b90516001600160a01b039091168152f35b50346101c6576020806003193601126101c65767ffffffffffffffff9082358281116101c657366023820112156101c6576105d090369060248187013591016111a2565b926105d961163a565b83519283116106ee57506105ee6009546111d8565b601f811161069e575b50602090601f8311600114610633575081925f92610628575b50505f19600383901b1c191660019190911b17600955005b015190508280610610565b90601f1983169360095f525f8051602061190a833981519152925f905b868210610686575050836001951061066e575b505050811b01600955005b01515f1960f88460031b161c19169055828080610663565b80600185968294968601518155019501930190610650565b60095f525f8051602061190a833981519152601f840160051c810191602085106106e4575b601f0160051c01905b8181106106d957506105f7565b5f81556001016106cc565b90915081906106c3565b604190634e487b7160e01b5f525260245ffd5b82346101c6575f3660031901126101c6576020906008549051908152f35b5090346101c65760203660031901126101c65760209135805f526002835261075360018060a01b03835f2054161515611456565b5f52600b8252805f20549051908152f35b5090346101c65760203660031901126101c65760209135805f526002835261079860018060a01b03835f2054161515611456565b5f52600a8252805f20549051908152f35b82346101c657610303906107bc366110ff565b919251926107c984611134565b5f84526102fd8383836112c0565b50346101c6575f3660031901126101c6576107f061163a565b4790811561081f57506007545f918291829182916001600160a01b031682f11561081657005b513d5f823e3d90fd5b606490602084519162461bcd60e51b835282015260166024820152754e6f2062616c616e636520746f20776974686472617760501b6044820152fd5b82346101c6575f3660031901126101c657602090516127108152f35b5090346101c65760203660031901126101c657602091355f52600a8252805f20549051908152f35b346101c6576103036108b0366110ff565b916112c0565b5090806003193601126101c657602490823566038d7ea4c680003410610e30576001908181101580610e25575b15610df25760085493612710851015610dbb575f1990858214610da957838601600855855f52602096600a885283865f2055600b88528135865f2055855161092a81611134565b5f81523315610d95575f88815260028a52879020546001600160a01b031680151590899082610d65575b335f5260038c52895f20898154019055815f5260028c52895f20336001600160601b0360a01b82541617905533907fddf252ad1be2c89b69c2b068fc378daa952ba7f163c4a11628f55a4df523b3ef5f80a4610d5157333b610c36575b506109bb876114d3565b9288875180955f906009546109cf816111d8565b908b8116908115610c1b5750600114610bd4575b50926005929184610a10955192839101825e0164173539b7b760d91b815203601a19810187520185611164565b875f5260068952865f209284519267ffffffffffffffff8411610bc3575050908291610a3f89969594546111d8565b601f8111610b6b575b5089601f8311600114610ae75790827f7f9dd5d8fa69e733db2277a568b65a9651a3042da18fb2b5ea1966d3891cbfda96979881935f94610adc575b501b9260031b1c19161790555b7ff8e1a15aba9398e019f0b49df1a4fde98ee17ae345cb5f6b5e2c27f5033e8ce7878651868152a1610acb855191868352868301906110af565b92878201528033930390a351908152f35b87015193505f610a84565b969190601f19821690845f528b5f20915f5b8d828210610b5457505098837f7f9dd5d8fa69e733db2277a568b65a9651a3042da18fb2b5ea1966d3891cbfda98999a10610b3c575b505050811b019055610a91565b8601519060f88460031b161c191690555f8080610b2f565b888c015185559a8b019a8d9a509386019301610af9565b90919280949596505f52895f20601f840160051c8101918b8510610bb9575b8a97969594939291601f8a920160051c01915b828110610bab575050610a48565b5f81558b9850899101610b9d565b9091508190610b8a565b604190634e487b7160e01b5f52525ffd5b90915060095f525f8051602061190a8339815191528a5f915b838310610c04575050508201830190610a106109e3565b80548b84018801528a9550918601918c9101610bed565b60ff1916868601525080151502830184019150610a106109e3565b908895939183995f839a9795610c778b519485938493630a85bd0160e11b9889865233908601528401528a60448401526080606484015260848301906110af565b03815f335af15f9181610d11575b50610ce1575050505050503d5f14610cd9573d90610ca282611186565b91610caf84519384611164565b82523d5f8284013e5b81519182610cd6575050505190633250574960e11b82523390820152fd5b01fd5b606090610cb8565b63ffffffff60e09a9496999395979a1b1603610cfd575f6109b1565b855190633250574960e11b82523390820152fd5b9091508781813d8311610d4a575b610d298183611164565b810103126101c657516001600160e01b0319811681036101c657905f610c85565b503d610d1f565b505f8651916339e3563760e11b8352820152fd5b5f82815260046020526040902080546001600160a01b0319169055805f5260038c52895f20878154019055610954565b505f865191633250574960e11b8352820152fd5b634e487b7160e01b5f90815260118852fd5b856012606492602087519362461bcd60e51b85528401528201527113585e081cdd5c1c1b1e481c995858da195960721b6044820152fd5b825162461bcd60e51b8152602081870152600e818601526d496e76616c69642072617269747960901b6044820152606490fd5b5060648111156108e3565b815162461bcd60e51b815260208186015260148185015273125b9cdd59999a58da595b9d081c185e5b595b9d60621b6044820152606490fd5b5090346101c657806003193601126101c657610e836110d3565b91602435610e9081611499565b33151580610f32575b80610f0b575b610ef5576001600160a01b039485169482918691167f8c5be1e5ebec7d5bd14f71427d1e84f3dd0314c0f7b2291e5b200ac8c7c3b9255f80a45f526020525f20906001600160601b0360a01b8254161790555f80f35b835163a9fbf51f60e01b81523381850152602490fd5b5060018060a01b0381165f526005602052835f20335f5260205260ff845f20541615610e9f565b506001600160a01b038116331415610e99565b5090346101c65760203660031901126101c6578160209235610f6681611499565b505f52825260018060a01b03815f2054169051908152f35b82346101c6575f3660031901126101c6578051905f90825f5492610fa1846111d8565b808352602094600190866001821691825f14610462575050600114610fd257505061027392916103f8910385611164565b5f80805286935091907f290decd9548b62a8d60345a988386fc84ba6bc95484008f6362f93160ef3e5635b82841061101357505050820101816103f86103e6565b8054848a018601528895508794909301928101610ffd565b82346101c65760203660031901126101c657359063ffffffff60e01b82168092036101c657602091632483248360e11b811490811561106c575b5015158152f35b6380ac58cd60e01b81149150811561109e575b811561108d575b5083611065565b6301ffc9a760e01b14905083611086565b635b5e139f60e01b8114915061107f565b805180835260209291819084018484015e5f828201840152601f01601f1916010190565b600435906001600160a01b03821682036101c657565b602435906001600160a01b03821682036101c657565b60609060031901126101c6576001600160a01b039060043582811681036101c6579160243590811681036101c6579060443590565b6020810190811067ffffffffffffffff82111761115057604052565b634e487b7160e01b5f52604160045260245ffd5b90601f8019910116810190811067ffffffffffffffff82111761115057604052565b67ffffffffffffffff811161115057601f01601f191660200190565b9291926111ae82611186565b916111bc6040519384611164565b8294818452818301116101c6578281602093845f960137010152565b90600182811c92168015611206575b60208310146111f257565b634e487b7160e01b5f52602260045260245ffd5b91607f16916111e7565b604051905f8260095491611223836111d8565b8083529260209060019081811690811561129c5750600114611250575b505061124e92500383611164565b565b91509260095f525f8051602061190a833981519152935f925b828410611284575061124e9450505081016020015f80611240565b85548885018301529485019487945092810192611269565b9150506020925061124e94915060ff191682840152151560051b8201015f80611240565b6001600160a01b03918216929091831561143e57815f52602092600284528260409583875f20541695331515806113ac575b506002908761137b575b825f5260038152885f2060018154019055835f5252865f20816001600160601b0360a01b825416179055857fddf252ad1be2c89b69c2b068fc378daa952ba7f163c4a11628f55a4df523b3ef5f80a4169283830361135a5750505050565b6064945051926364283d7b60e01b8452600484015260248301526044820152fd5b5f84815260046020526040812080546001600160a01b03191690558881526003825289902080545f190190556112fc565b91925090806113fd575b156113c4579084915f6112f2565b8685876113e1576024915190637e27328960e01b82526004820152fd5b604491519063177e802f60e01b82523360048301526024820152fd5b503386148015611422575b806113b65750845f52600481523384885f205416146113b6565b50855f5260058152865f20335f52815260ff875f205416611408565b604051633250574960e11b81525f6004820152602490fd5b1561145d57565b60405162461bcd60e51b8152602060048201526014602482015273151bdad95b88191bd95cc81b9bdd08195e1a5cdd60621b6044820152606490fd5b5f818152600260205260409020546001600160a01b03169081156114bb575090565b60249060405190637e27328960e01b82526004820152fd5b805f917a184f03e93ff9f4daa797ed6e38ed64bf6a1f0100000000000000008082101561162c575b506d04ee2d6d415b85acef81000000008083101561161d575b50662386f26fc100008083101561160e575b506305f5e100808310156115ff575b50612710808310156115f0575b5060648210156115e0575b600a809210156115d6575b600190816021600186019561156c87611186565b9661157a6040519889611164565b808852611589601f1991611186565b01366020890137860101905b6115a1575b5050505090565b5f19019083906f181899199a1a9b1b9c1cb0b131b232b360811b8282061a8353049182156115d157919082611595565b61159a565b9160010191611558565b919060646002910491019161154d565b6004919392049101915f611542565b6008919392049101915f611535565b6010919392049101915f611526565b6020919392049101915f611514565b60409350810491505f6114fb565b6007546001600160a01b0316330361164e57565b60405163118cdaa760e01b8152336004820152602490fd5b9293909193843b611679575b5050505050565b604051630a85bd0160e11b8082526001600160a01b0395861660048301529385166024820152604481019190915260806064820152602095949093169392908590829081906116cc9060848301906110af565b03815f885af15f9181611770575b50611739575050503d5f14611731573d916116f483611186565b926117026040519485611164565b83523d5f8285013e5b8251928361172c57604051633250574960e11b815260048101849052602490fd5b019050fd5b60609161170b565b9193506001600160e01b03199091160361175857505f80808080611672565b60249060405190633250574960e11b82526004820152fd5b9091508581813d83116117a9575b6117888183611164565b810103126101c657516001600160e01b0319811681036101c657905f6116da565b503d61177e565b919061124e9060405180946020928382819351918291018486015e8301908282015f8152815193849201905e015f83820152038085520183611164565b6117f681611499565b50805f5260206006815260405f209060405180925f908054611817816111d8565b808552916001918083169081156118e757506001146118a9575b50505061184092500382611164565b611848611210565b8051156118a357815161189957505061186081611499565b50611869611210565b8051156118855761187c611882926114d3565b906117b0565b90565b505060405161189381611134565b5f815290565b61188292506117b0565b50905090565b5f90815285812095935091905b8183106118cf57505061184093508201015f8080611831565b855487840185015294850194869450918301916118b6565b9250505061184094925060ff191682840152151560051b8201015f808061183156fe6e1540171b6c0c960b71a7020d9f60077f6af931a8bbf590da0223dacf75c7afa264697066735822122028ed00568deb567b4b56818fe18af7a10936ad01024c7f2dcfafe7db4fd5588f64736f6c63430008190033",
  "linkReferences": {},
  "deployedLinkReferences": {}
}