{
  "_format": "hh-sol-artifact-1",
  "contractName": "FhenixOGNFT",
  "sourceName": "contracts/FhenixOGNFT.sol",
  "abi": [
    {
      "inputs": [
        {
          "internalType": "string",
          "name": "name",
          "type": "string"
        },
        {
          "internalType": "string",
          "name": "symbol",
          "type": "string"
        },
        {
          "internalType": "string",
          "name": "baseURI",
          "type": "string"
        }
      ],
      "stateMutability": "nonpayable",
      "type": "constructor"
    },
    {
      "inputs": [
        {
          "internalType": "address",
          "name": "sender",
          "type": "address"
        },
        {
          "internalType": "uint256",
          "name": "tokenId",
          "type": "uint256"
        },
        {
          "internalType": "address",
          "name": "owner",
          "type": "address"
        }
      ],
      "name": "ERC721IncorrectOwner",
      "type": "error"
    },
    {
      "inputs": [
        {
          "internalType": "address",
          "name": "operator",
          "type": "address"
        },
        {
          "internalType": "uint256",
          "name": "tokenId",
          "type": "uint256"
        }
      ],
      "name": "ERC721InsufficientApproval",
      "type": "error"
    },
    {
      "inputs": [
        {
          "internalType": "address",
          "name": "approver",
          "type": "address"
        }
      ],
      "name": "ERC721InvalidApprover",
      "type": "error"
    },
    {
      "inputs": [
        {
          "internalType": "address",
          "name": "operator",
          "type": "address"
        }
      ],
      "name": "ERC721InvalidOperator",
      "type": "error"
    },
    {
      "inputs": [
        {
          "internalType": "address",
          "name": "owner",
          "type": "address"
        }
      ],
      "name": "ERC721InvalidOwner",
      "type": "error"
    },
    {
      "inputs": [
        {
          "internalType": "address",
          "name": "receiver",
          "type": "address"
        }
      ],
      "name": "ERC721InvalidReceiver",
      "type": "error"
    },
    {
      "inputs": [
        {
          "internalType": "address",
          "name": "sender",
          "type": "address"
        }
      ],
      "name": "ERC721InvalidSender",
      "type": "error"
    },
    {
      "inputs": [
        {
          "internalType": "uint256",
          "name": "tokenId",
          "type": "uint256"
        }
      ],
      "name": "ERC721NonexistentToken",
      "type": "error"
    },
    {
      "inputs": [
        {
          "internalType": "uint8",
          "name": "got",
          "type": "uint8"
        },
        {
          "internalType": "uint8",
          "name": "expected",
          "type": "uint8"
        }
      ],
      "name": "InvalidEncryptedInput",
      "type": "error"
    },
    {
      "inputs": [],
      "name": "InvalidShortString",
      "type": "error"
    },
    {
      "inputs": [
        {
          "internalType": "address",
          "name": "owner",
          "type": "address"
        }
      ],
      "name": "OwnableInvalidOwner",
      "type": "error"
    },
    {
      "inputs": [
        {
          "internalType": "address",
          "name": "account",
          "type": "address"
        }
      ],
      "name": "OwnableUnauthorizedAccount",
      "type": "error"
    },
    {
      "inputs": [],
      "name": "PermissionExpired",
      "type": "error"
    },
    {
      "inputs": [],
      "name": "PermissionInvalidSignature",
      "type": "error"
    },
    {
      "inputs": [],
      "name": "PermissionInvalidValidator",
      "type": "error"
    },
    {
      "inputs": [],
      "name": "PermissionUnauthorized",
      "type": "error"
    },
    {
      "inputs": [
        {
          "internalType": "int32",
          "name": "value",
          "type": "int32"
        }
      ],
      "name": "SecurityZoneOutOfBounds",
      "type": "error"
    },
    {
      "inputs": [
        {
          "internalType": "string",
          "name": "str",
          "type": "string"
        }
      ],
      "name": "StringTooLong",
      "type": "error"
    },
    {
      "anonymous": false,
      "inputs": [
        {
          "indexed": true,
          "internalType": "address",
          "name": "owner",
          "type": "address"
        },
        {
          "indexed": true,
          "internalType": "address",
          "name": "approved",
          "type": "address"
        },
        {
          "indexed": true,
          "internalType": "uint256",
          "name": "tokenId",
          "type": "uint256"
        }
      ],
      "name": "Approval",
      "type": "event"
    },
    {
      "anonymous": false,
      "inputs": [
        {
          "indexed": true,
          "internalType": "address",
          "name": "owner",
          "type": "address"
        },
        {
          "indexed": true,
          "internalType": "address",
          "name": "operator",
          "type": "address"
        },
        {
          "indexed": false,
          "internalType": "bool",
          "name": "approved",
          "type": "bool"
        }
      ],
      "name": "ApprovalForAll",
      "type": "event"
    },
    {
      "anonymous": false,
      "inputs": [
        {
          "indexed": false,
          "internalType": "uint256",
          "name": "_fromTokenId",
          "type": "uint256"
        },
        {
          "indexed": false,
          "internalType": "uint256",
          "name": "_toTokenId",
          "type": "uint256"
        }
      ],
      "name": "BatchMetadataUpdate",
      "type": "event"
    },
    {
      "anonymous": false,
      "inputs": [
        {
          "indexed": false,
          "internalType": "string",
          "name": "message",
          "type": "string"
        }
      ],
      "name": "DebugLog",
      "type": "event"
    },
    {
      "anonymous": false,
      "inputs": [
        {
          "indexed": false,
          "internalType": "uint256",
          "name": "value",
          "type": "uint256"
        }
      ],
      "name": "DebugLogUint256",
      "type": "event"
    },
    {
      "anonymous": false,
      "inputs": [],
      "name": "EIP712DomainChanged",
      "type": "event"
    },
    {
      "anonymous": false,
      "inputs": [
        {
          "indexed": false,
          "internalType": "uint256",
          "name": "_tokenId",
          "type": "uint256"
        }
      ],
      "name": "MetadataUpdate",
      "type": "event"
    },
    {
      "anonymous": false,
      "inputs": [
        {
          "indexed": true,
          "internalType": "address",
          "name": "minter",
          "type": "address"
        },
        {
          "indexed": true,
          "internalType": "uint256",
          "name": "tokenId",
          "type": "uint256"
        },
        {
          "indexed": false,
          "internalType": "string",
          "name": "tokenURI",
          "type": "string"
        }
      ],
      "name": "NFTMinted",
      "type": "event"
    },
    {
      "anonymous": false,
      "inputs": [
        {
          "indexed": true,
          "internalType": "address",
          "name": "previousOwner",
          "type": "address"
        },
        {
          "indexed": true,
          "internalType": "address",
          "name": "newOwner",
          "type": "address"
        }
      ],
      "name": "OwnershipTransferred",
      "type": "event"
    },
    {
      "anonymous": false,
      "inputs": [
        {
          "indexed": true,
          "internalType": "uint256",
          "name": "tokenId",
          "type": "uint256"
        },
        {
          "indexed": false,
          "internalType": "bytes32",
          "name": "encryptedRarityHash",
          "type": "bytes32"
        }
      ],
      "name": "RaritySet",
      "type": "event"
    },
    {
      "anonymous": false,
      "inputs": [
        {
          "indexed": true,
          "internalType": "address",
          "name": "from",
          "type": "address"
        },
        {
          "indexed": true,
          "internalType": "address",
          "name": "to",
          "type": "address"
        },
        {
          "indexed": true,
          "internalType": "uint256",
          "name": "tokenId",
          "type": "uint256"
        }
      ],
      "name": "Transfer",
      "type": "event"
    },
    {
      "anonymous": false,
      "inputs": [
        {
          "indexed": true,
          "internalType": "address",
          "name": "user",
          "type": "address"
        },
        {
          "indexed": false,
          "internalType": "bytes32",
          "name": "encryptedStatusHash",
          "type": "bytes32"
        }
      ],
      "name": "WhitelistUpdated",
      "type": "event"
    },
    {
      "inputs": [],
      "name": "MAX_SUPPLY",
      "outputs": [
        {
          "internalType": "uint256",
          "name": "",
          "type": "uint256"
        }
      ],
      "stateMutability": "view",
      "type": "function"
    },
    {
      "inputs": [],
      "name": "MINT_PRICE",
      "outputs": [
        {
          "internalType": "uint256",
          "name": "",
          "type": "uint256"
        }
      ],
      "stateMutability": "view",
      "type": "function"
    },
    {
      "inputs": [
        {
          "internalType": "address",
          "name": "to",
          "type": "address"
        },
        {
          "internalType": "uint256",
          "name": "tokenId",
          "type": "uint256"
        }
      ],
      "name": "approve",
      "outputs": [],
      "stateMutability": "nonpayable",
      "type": "function"
    },
    {
      "inputs": [
        {
          "internalType": "address",
          "name": "owner",
          "type": "address"
        }
      ],
      "name": "balanceOf",
      "outputs": [
        {
          "internalType": "uint256",
          "name": "",
          "type": "uint256"
        }
      ],
      "stateMutability": "view",
      "type": "function"
    },
    {
      "inputs": [],
      "name": "eip712Domain",
      "outputs": [
        {
          "internalType": "bytes1",
          "name": "fields",
          "type": "bytes1"
        },
        {
          "internalType": "string",
          "name": "name",
          "type": "string"
        },
        {
          "internalType": "string",
          "name": "version",
          "type": "string"
        },
        {
          "internalType": "uint256",
          "name": "chainId",
          "type": "uint256"
        },
        {
          "internalType": "address",
          "name": "verifyingContract",
          "type": "address"
        },
        {
          "internalType": "bytes32",
          "name": "salt",
          "type": "bytes32"
        },
        {
          "internalType": "uint256[]",
          "name": "extensions",
          "type": "uint256[]"
        }
      ],
      "stateMutability": "view",
      "type": "function"
    },
    {
      "inputs": [
        {
          "internalType": "uint256",
          "name": "tokenId",
          "type": "uint256"
        }
      ],
      "name": "getApproved",
      "outputs": [
        {
          "internalType": "address",
          "name": "",
          "type": "address"
        }
      ],
      "stateMutability": "view",
      "type": "function"
    },
    {
      "inputs": [],
      "name": "getCurrentSupply",
      "outputs": [
        {
          "internalType": "uint256",
          "name": "",
          "type": "uint256"
        }
      ],
      "stateMutability": "view",
      "type": "function"
    },
    {
      "inputs": [
        {
          "internalType": "uint256",
          "name": "tokenId",
          "type": "uint256"
        }
      ],
      "name": "getDecryptedAttribute",
      "outputs": [
        {
          "internalType": "uint32",
          "name": "value",
          "type": "uint32"
        },
        {
          "internalType": "bool",
          "name": "decrypted",
          "type": "bool"
        }
      ],
      "stateMutability": "view",
      "type": "function"
    },
    {
      "inputs": [
        {
          "internalType": "uint256",
          "name": "tokenId",
          "type": "uint256"
        },
        {
          "components": [
            {
              "internalType": "address",
              "name": "issuer",
              "type": "address"
            },
            {
              "internalType": "uint64",
              "name": "expiration",
              "type": "uint64"
            },
            {
              "internalType": "address",
              "name": "recipient",
              "type": "address"
            },
            {
              "internalType": "uint256",
              "name": "validatorId",
              "type": "uint256"
            },
            {
              "internalType": "address",
              "name": "validatorContract",
              "type": "address"
            },
            {
              "internalType": "bytes32",
              "name": "sealingKey",
              "type": "bytes32"
            },
            {
              "internalType": "bytes",
              "name": "issuerSignature",
              "type": "bytes"
            },
            {
              "internalType": "bytes",
              "name": "recipientSignature",
              "type": "bytes"
            }
          ],
          "internalType": "struct Permission",
          "name": "permission",
          "type": "tuple"
        }
      ],
      "name": "getDecryptedAttributeWithPermission",
      "outputs": [
        {
          "internalType": "uint32",
          "name": "value",
          "type": "uint32"
        },
        {
          "internalType": "bool",
          "name": "decrypted",
          "type": "bool"
        }
      ],
      "stateMutability": "view",
      "type": "function"
    },
    {
      "inputs": [
        {
          "internalType": "uint256",
          "name": "tokenId",
          "type": "uint256"
        }
      ],
      "name": "getDecryptedRarity",
      "outputs": [
        {
          "internalType": "uint32",
          "name": "value",
          "type": "uint32"
        },
        {
          "internalType": "bool",
          "name": "decrypted",
          "type": "bool"
        }
      ],
      "stateMutability": "view",
      "type": "function"
    },
    {
      "inputs": [
        {
          "internalType": "uint256",
          "name": "tokenId",
          "type": "uint256"
        },
        {
          "components": [
            {
              "internalType": "address",
              "name": "issuer",
              "type": "address"
            },
            {
              "internalType": "uint64",
              "name": "expiration",
              "type": "uint64"
            },
            {
              "internalType": "address",
              "name": "recipient",
              "type": "address"
            },
            {
              "internalType": "uint256",
              "name": "validatorId",
              "type": "uint256"
            },
            {
              "internalType": "address",
              "name": "validatorContract",
              "type": "address"
            },
            {
              "internalType": "bytes32",
              "name": "sealingKey",
              "type": "bytes32"
            },
            {
              "internalType": "bytes",
              "name": "issuerSignature",
              "type": "bytes"
            },
            {
              "internalType": "bytes",
              "name": "recipientSignature",
              "type": "bytes"
            }
          ],
          "internalType": "struct Permission",
          "name": "permission",
          "type": "tuple"
        }
      ],
      "name": "getDecryptedRarityWithPermission",
      "outputs": [
        {
          "internalType": "uint32",
          "name": "value",
          "type": "uint32"
        },
        {
          "internalType": "bool",
          "name": "decrypted",
          "type": "bool"
        }
      ],
      "stateMutability": "view",
      "type": "function"
    },
    {
      "inputs": [
        {
          "internalType": "uint256",
          "name": "tokenId",
          "type": "uint256"
        }
      ],
      "name": "getEncryptedAttribute",
      "outputs": [
        {
          "internalType": "euint32",
          "name": "",
          "type": "uint256"
        }
      ],
      "stateMutability": "view",
      "type": "function"
    },
    {
      "inputs": [
        {
          "internalType": "uint256",
          "name": "tokenId",
          "type": "uint256"
        }
      ],
      "name": "getEncryptedMintTimestamp",
      "outputs": [
        {
          "internalType": "euint64",
          "name": "",
          "type": "uint256"
        }
      ],
      "stateMutability": "view",
      "type": "function"
    },
    {
      "inputs": [
        {
          "internalType": "uint256",
          "name": "tokenId",
          "type": "uint256"
        }
      ],
      "name": "getEncryptedRarity",
      "outputs": [
        {
          "internalType": "euint32",
          "name": "",
          "type": "uint256"
        }
      ],
      "stateMutability": "view",
      "type": "function"
    },
    {
      "inputs": [],
      "name": "getEncryptedTotalSupply",
      "outputs": [
        {
          "internalType": "euint32",
          "name": "",
          "type": "uint256"
        }
      ],
      "stateMutability": "view",
      "type": "function"
    },
    {
      "inputs": [
        {
          "internalType": "address",
          "name": "user",
          "type": "address"
        }
      ],
      "name": "getUserEncryptedMintCount",
      "outputs": [
        {
          "internalType": "euint32",
          "name": "",
          "type": "uint256"
        }
      ],
      "stateMutability": "view",
      "type": "function"
    },
    {
      "inputs": [
        {
          "internalType": "address",
          "name": "owner",
          "type": "address"
        },
        {
          "internalType": "address",
          "name": "operator",
          "type": "address"
        }
      ],
      "name": "isApprovedForAll",
      "outputs": [
        {
          "internalType": "bool",
          "name": "",
          "type": "bool"
        }
      ],
      "stateMutability": "view",
      "type": "function"
    },
    {
      "inputs": [
        {
          "internalType": "address",
          "name": "user",
          "type": "address"
        }
      ],
      "name": "isWhitelisted",
      "outputs": [
        {
          "internalType": "ebool",
          "name": "",
          "type": "uint256"
        }
      ],
      "stateMutability": "view",
      "type": "function"
    },
    {
      "inputs": [
        {
          "components": [
            {
              "internalType": "uint256",
              "name": "ctHash",
              "type": "uint256"
            },
            {
              "internalType": "uint8",
              "name": "securityZone",
              "type": "uint8"
            },
            {
              "internalType": "uint8",
              "name": "utype",
              "type": "uint8"
            },
            {
              "internalType": "bytes",
              "name": "signature",
              "type": "bytes"
            }
          ],
          "internalType": "struct InEuint32",
          "name": "encryptedRarity",
          "type": "tuple"
        },
        {
          "components": [
            {
              "internalType": "uint256",
              "name": "ctHash",
              "type": "uint256"
            },
            {
              "internalType": "uint8",
              "name": "securityZone",
              "type": "uint8"
            },
            {
              "internalType": "uint8",
              "name": "utype",
              "type": "uint8"
            },
            {
              "internalType": "bytes",
              "name": "signature",
              "type": "bytes"
            }
          ],
          "internalType": "struct InEuint32",
          "name": "encryptedAttribute",
          "type": "tuple"
        },
        {
          "internalType": "string",
          "name": "tokenUri",
          "type": "string"
        }
      ],
      "name": "mint",
      "outputs": [
        {
          "internalType": "uint256",
          "name": "",
          "type": "uint256"
        }
      ],
      "stateMutability": "payable",
      "type": "function"
    },
    {
      "inputs": [],
      "name": "name",
      "outputs": [
        {
          "internalType": "string",
          "name": "",
          "type": "string"
        }
      ],
      "stateMutability": "view",
      "type": "function"
    },
    {
      "inputs": [],
      "name": "owner",
      "outputs": [
        {
          "internalType": "address",
          "name": "",
          "type": "address"
        }
      ],
      "stateMutability": "view",
      "type": "function"
    },
    {
      "inputs": [
        {
          "internalType": "uint256",
          "name": "tokenId",
          "type": "uint256"
        }
      ],
      "name": "ownerOf",
      "outputs": [
        {
          "internalType": "address",
          "name": "",
          "type": "address"
        }
      ],
      "stateMutability": "view",
      "type": "function"
    },
    {
      "inputs": [],
      "name": "renounceOwnership",
      "outputs": [],
      "stateMutability": "nonpayable",
      "type": "function"
    },
    {
      "inputs": [
        {
          "internalType": "uint256",
          "name": "tokenId",
          "type": "uint256"
        }
      ],
      "name": "requestDecryptAll",
      "outputs": [],
      "stateMutability": "nonpayable",
      "type": "function"
    },
    {
      "inputs": [
        {
          "internalType": "uint256",
          "name": "tokenId",
          "type": "uint256"
        },
        {
          "components": [
            {
              "internalType": "address",
              "name": "issuer",
              "type": "address"
            },
            {
              "internalType": "uint64",
              "name": "expiration",
              "type": "uint64"
            },
            {
              "internalType": "address",
              "name": "recipient",
              "type": "address"
            },
            {
              "internalType": "uint256",
              "name": "validatorId",
              "type": "uint256"
            },
            {
              "internalType": "address",
              "name": "validatorContract",
              "type": "address"
            },
            {
              "internalType": "bytes32",
              "name": "sealingKey",
              "type": "bytes32"
            },
            {
              "internalType": "bytes",
              "name": "issuerSignature",
              "type": "bytes"
            },
            {
              "internalType": "bytes",
              "name": "recipientSignature",
              "type": "bytes"
            }
          ],
          "internalType": "struct Permission",
          "name": "permission",
          "type": "tuple"
        }
      ],
      "name": "requestDecryptAllWithPermission",
      "outputs": [],
      "stateMutability": "nonpayable",
      "type": "function"
    },
    {
      "inputs": [
        {
          "internalType": "uint256",
          "name": "tokenId",
          "type": "uint256"
        }
      ],
      "name": "requestDecryptAttribute",
      "outputs": [],
      "stateMutability": "nonpayable",
      "type": "function"
    },
    {
      "inputs": [
        {
          "internalType": "uint256",
          "name": "tokenId",
          "type": "uint256"
        },
        {
          "components": [
            {
              "internalType": "address",
              "name": "issuer",
              "type": "address"
            },
            {
              "internalType": "uint64",
              "name": "expiration",
              "type": "uint64"
            },
            {
              "internalType": "address",
              "name": "recipient",
              "type": "address"
            },
            {
              "internalType": "uint256",
              "name": "validatorId",
              "type": "uint256"
            },
            {
              "internalType": "address",
              "name": "validatorContract",
              "type": "address"
            },
            {
              "internalType": "bytes32",
              "name": "sealingKey",
              "type": "bytes32"
            },
            {
              "internalType": "bytes",
              "name": "issuerSignature",
              "type": "bytes"
            },
            {
              "internalType": "bytes",
              "name": "recipientSignature",
              "type": "bytes"
            }
          ],
          "internalType": "struct Permission",
          "name": "permission",
          "type": "tuple"
        }
      ],
      "name": "requestDecryptAttributeWithPermission",
      "outputs": [],
      "stateMutability": "nonpayable",
      "type": "function"
    },
    {
      "inputs": [
        {
          "internalType": "uint256",
          "name": "tokenId",
          "type": "uint256"
        }
      ],
      "name": "requestDecryptRarity",
      "outputs": [],
      "stateMutability": "nonpayable",
      "type": "function"
    },
    {
      "inputs": [
        {
          "internalType": "uint256",
          "name": "tokenId",
          "type": "uint256"
        },
        {
          "components": [
            {
              "internalType": "address",
              "name": "issuer",
              "type": "address"
            },
            {
              "internalType": "uint64",
              "name": "expiration",
              "type": "uint64"
            },
            {
              "internalType": "address",
              "name": "recipient",
              "type": "address"
            },
            {
              "internalType": "uint256",
              "name": "validatorId",
              "type": "uint256"
            },
            {
              "internalType": "address",
              "name": "validatorContract",
              "type": "address"
            },
            {
              "internalType": "bytes32",
              "name": "sealingKey",
              "type": "bytes32"
            },
            {
              "internalType": "bytes",
              "name": "issuerSignature",
              "type": "bytes"
            },
            {
              "internalType": "bytes",
              "name": "recipientSignature",
              "type": "bytes"
            }
          ],
          "internalType": "struct Permission",
          "name": "permission",
          "type": "tuple"
        }
      ],
      "name": "requestDecryptRarityWithPermission",
      "outputs": [],
      "stateMutability": "nonpayable",
      "type": "function"
    },
    {
      "inputs": [
        {
          "internalType": "address",
          "name": "from",
          "type": "address"
        },
        {
          "internalType": "address",
          "name": "to",
          "type": "address"
        },
        {
          "internalType": "uint256",
          "name": "tokenId",
          "type": "uint256"
        }
      ],
      "name": "safeTransferFrom",
      "outputs": [],
      "stateMutability": "nonpayable",
      "type": "function"
    },
    {
      "inputs": [
        {
          "internalType": "address",
          "name": "from",
          "type": "address"
        },
        {
          "internalType": "address",
          "name": "to",
          "type": "address"
        },
        {
          "internalType": "uint256",
          "name": "tokenId",
          "type": "uint256"
        },
        {
          "internalType": "bytes",
          "name": "data",
          "type": "bytes"
        }
      ],
      "name": "safeTransferFrom",
      "outputs": [],
      "stateMutability": "nonpayable",
      "type": "function"
    },
    {
      "inputs": [
        {
          "internalType": "address",
          "name": "operator",
          "type": "address"
        },
        {
          "internalType": "bool",
          "name": "approved",
          "type": "bool"
        }
      ],
      "name": "setApprovalForAll",
      "outputs": [],
      "stateMutability": "nonpayable",
      "type": "function"
    },
    {
      "inputs": [
        {
          "internalType": "string",
          "name": "baseURI",
          "type": "string"
        }
      ],
      "name": "setBaseURI",
      "outputs": [],
      "stateMutability": "nonpayable",
      "type": "function"
    },
    {
      "inputs": [
        {
          "internalType": "bytes4",
          "name": "interfaceId",
          "type": "bytes4"
        }
      ],
      "name": "supportsInterface",
      "outputs": [
        {
          "internalType": "bool",
          "name": "",
          "type": "bool"
        }
      ],
      "stateMutability": "view",
      "type": "function"
    },
    {
      "inputs": [],
      "name": "symbol",
      "outputs": [
        {
          "internalType": "string",
          "name": "",
          "type": "string"
        }
      ],
      "stateMutability": "view",
      "type": "function"
    },
    {
      "inputs": [
        {
          "internalType": "uint256",
          "name": "tokenId",
          "type": "uint256"
        }
      ],
      "name": "tokenURI",
      "outputs": [
        {
          "internalType": "string",
          "name": "",
          "type": "string"
        }
      ],
      "stateMutability": "view",
      "type": "function"
    },
    {
      "inputs": [
        {
          "internalType": "address",
          "name": "from",
          "type": "address"
        },
        {
          "internalType": "address",
          "name": "to",
          "type": "address"
        },
        {
          "internalType": "uint256",
          "name": "tokenId",
          "type": "uint256"
        }
      ],
      "name": "transferFrom",
      "outputs": [],
      "stateMutability": "nonpayable",
      "type": "function"
    },
    {
      "inputs": [
        {
          "internalType": "address",
          "name": "newOwner",
          "type": "address"
        }
      ],
      "name": "transferOwnership",
      "outputs": [],
      "stateMutability": "nonpayable",
      "type": "function"
    },
    {
      "inputs": [
        {
          "internalType": "address",
          "name": "user",
          "type": "address"
        },
        {
          "components": [
            {
              "internalType": "uint256",
              "name": "ctHash",
              "type": "uint256"
            },
            {
              "internalType": "uint8",
              "name": "securityZone",
              "type": "uint8"
            },
            {
              "internalType": "uint8",
              "name": "utype",
              "type": "uint8"
            },
            {
              "internalType": "bytes",
              "name": "signature",
              "type": "bytes"
            }
          ],
          "internalType": "struct InEbool",
          "name": "encryptedStatus",
          "type": "tuple"
        }
      ],
      "name": "updateWhitelist",
      "outputs": [],
      "stateMutability": "nonpayable",
      "type": "function"
    },
    {
      "inputs": [],
      "name": "withdraw",
      "outputs": [],
      "stateMutability": "nonpayable",
      "type": "function"
    }
  ],
  "bytecode": "0x610160604090808252346103d157614505803803809161001f828561069e565b833981016060828203126103d15781516001600160401b0393908481116103d1578261004c9185016106c1565b92602090818101518681116103d157846100679183016106c1565b93838201518781116103d15761007d92016106c1565b9482519361008a85610683565b60039081865283860196621050d360ea1b88528551986100a98a610683565b600192838b52868b0190603160f81b825283518781116103fa575f54948686811c96168015610679575b8a8710146104ca578190601f9687811161062b575b508a908783116001146105cb575f926105c0575b50505f1982891b1c191690861b175f555b8051908782116103fa578554908682811c921680156105b6575b8a8310146104ca578186849311610568575b50899086831160011461050a575f926104ff575b50505f1982881b1c191690851b1784555b33156104e85760078054336001600160a01b0319821681179092556001600160a01b03167f8be0079c531659141344cd1fd0a4f28419497f9722a3daafe3b4186f6b6457e05f80a36101af89610716565b996101209a8b526101bf8c61089e565b996101409a8b525190209a8b60e052519020996101009a808c524660a052885190888201927f8b73c3c69bb8fe3d512ecc4cf759cc79239f7b179b0ffacaa9a75d522b39400f84528a83015260608201524660808201523060a082015260a0815260c08101818110888211176103fa5789525190206080523060c0528051918583116103fa57600c54918483811c931680156104de575b888410146104ca578282859411610479575b5087918311600114610419575f9261040e575b50505f1982851b1c191690821b17600c555b5f600a55845191848301838110858211176103fa5786525f835285519360808501908111858210176103fa578652835283830160603682378351156103e6575f9052825111156103e6576004848301528151600210156103e65761032483915f606085015261033686519485938493631888debd60e01b8552600480860152601a60248601526080604486015260848501906109da565b838103600319016064850152906109da565b03815f73ea30c4b8b44078bbf8a6ef5b9f1ec1626c7848d95af19182156103dc575f926103aa575b5050600b555191613af79384610a0e853960805184613535015260a05184613600015260c051846134ff015260e05184613584015251836135aa015251826119510152518161197e0152f35b90809250813d83116103d5575b6103c1818361069e565b810103126103d157515f8061035e565b5f80fd5b503d6103b7565b83513d5f823e3d90fd5b634e487b7160e01b5f52603260045260245ffd5b634e487b7160e01b5f52604160045260245ffd5b015190505f8061027b565b90849350601f19831691600c5f52885f20925f5b8a828210610463575050841161044c575b505050811b01600c5561028d565b01515f1983871b60f8161c191690555f808061043e565b838501518655889790950194938401930161042d565b90919250600c5f52875f208380860160051c8201928a87106104c1575b91869588929594930160051c01915b8281106104b3575050610268565b5f81558695508791016104a5565b92508192610496565b634e487b7160e01b5f52602260045260245ffd5b92607f1692610256565b8751631e4fbdf760e01b81525f6004820152602490fd5b015190505f8061014d565b90879350601f19831691845f528b5f20925f5b8d828210610552575050841161053b575b505050811b01845561015e565b01515f19838a1b60f8161c191690555f808061052e565b8385015186558b9790950194938401930161051d565b909150865f52895f208680850160051c8201928c86106105ad575b918991869594930160051c01915b82811061059f575050610139565b5f8155859450899101610591565b92508192610583565b91607f1691610127565b015190505f806100fc565b5f8080528c81208a9550929190601f198516908e5b82821061061457505084116105fd575b505050811b015f5561010d565b01515f19838b1b60f8161c191690555f80806105f0565b8385015186558c979095019493840193018e6105e0565b9091505f80528a5f208780850160051c8201928d8610610670575b918a91869594930160051c01915b8281106106625750506100e8565b5f81558594508a9101610654565b92508192610646565b95607f16956100d3565b604081019081106001600160401b038211176103fa57604052565b601f909101601f19168101906001600160401b038211908210176103fa57604052565b81601f820112156103d1578051906001600160401b0382116103fa57604051926106f5601f8401601f19166020018561069e565b828452602083830101116103d157815f9260208093018386015e8301015290565b80516020908181101561078c5750601f82511161074e578082519201519080831061074057501790565b825f19910360031b1b161790565b60448260405192839163305a27a960e01b83528160048401528051918291826024860152018484015e5f828201840152601f01601f19168101030190fd5b906001600160401b0382116103fa57600854926001938481811c91168015610894575b838210146104ca57601f8111610860575b5081601f84116001146107fc57509282939183925f946107f1575b50501b915f199060031b1c19161760085560ff90565b015192505f806107db565b919083601f19811660085f52845f20945f905b88838310610846575050501061082e575b505050811b0160085560ff90565b01515f1960f88460031b161c191690555f8080610820565b85870151885590960195948501948793509081019061080f565b60085f5284601f845f20920160051c820191601f860160051c015b8281106108895750506107c0565b5f815501859061087b565b90607f16906107af565b8051602090818110156108c85750601f82511161074e578082519201519080831061074057501790565b906001600160401b0382116103fa57600954926001938481811c911680156109d0575b838210146104ca57601f811161099c575b5081601f841160011461093857509282939183925f9461092d575b50501b915f199060031b1c19161760095560ff90565b015192505f80610917565b919083601f19811660095f52845f20945f905b88838310610982575050501061096a575b505050811b0160095560ff90565b01515f1960f88460031b161c191690555f808061095c565b85870151885590960195948501948793509081019061094b565b60095f5284601f845f20920160051c820191601f860160051c015b8281106109c55750506108fc565b5f81550185906109b7565b90607f16906108eb565b9081518082526020808093019301915f5b8281106109f9575050505090565b8351855293810193928101926001016109eb56fe6080806040526004361015610012575f80fd5b60e0905f35821c90816301ffc9a7146123665750806306fdde03146122bf578063081812fc14612283578063095ea7b3146121a25780631ad023a11461216a578063217c1dd414611ff357806323b872dd14611fdc5780632f378c5514611f9057806332cb6b0c14611f745780633adadb4714611f2d5780633af32abf14611ef55780633ccfd60b14611e7b5780633dd4336314611d0457806342842e0e14611cd75780634f3e1efc14611cba57806355f804b314611b345780636352211e14611b0457806370a0823114611aae578063715018a614611a53578063807927d014611a0157806384b0196e1461193b5780638da5cb5b1461191357806395d89b4114611835578063a22cb46514611794578063a76c467014611742578063aa61a97f146115b0578063b88d4fde14611556578063bc43c6aa146114d9578063c002d23d146114b8578063c81724621461146c578063c87b56dd14611439578063d1bd8029146113ed578063d4ea0664146113d0578063db7050c21461128d578063dca392d314611246578063e985e9c5146111f4578063ee0aa67614611060578063f2fde38b14610fd9578063fb7889181461047a5763fe1d6703146101d6575f80fd5b346103f3576101e43661244f565b906020918281016001600160401b03806101fd836126ca565b1615159182610465575b50506104535761025161022a61022561022036856126de565b612afc565b612c2b565b6102338361279d565b9061024b61024460c08601866127b1565b369161255a565b91612c51565b1561041b576001600160a01b039360408201908561026e8361279d565b161561042d576102a59061028d61022561028836876126de565b612d26565b61024b61024461029c8661279d565b938701876127b1565b1561041b576102b4859161279d565b163303610409575b606081013580610334575b506013936102ef61030692845f52600286526102ea8360405f20541615156127f0565b61279d565b90835f52600285528060405f205416911614612833565b5f525261031660405f2054612d80565b6040805163ffffffff939093168352901515602083015290f35b0390f35b60808201856103428261279d565b16156103b3576103969186610357879361279d565b166103618561279d565b6040516316c6723d60e31b81526001600160a01b03909116600482015260248101929092529092839190829081906044820190565b03915afa9081156103fe575f916103c5575b506103b3575f6102c7565b604051632eb653df60e21b8152600490fd5b90508381813d83116103f7575b6103dc818361251e565b810103126103f3576103ed906127e3565b5f6103a8565b5f80fd5b503d6103d2565b6040513d5f823e3d90fd5b60405163ea5ceddf60e01b8152600490fd5b6040516359f1cb2d60e01b8152600490fd5b5050836104398261279d565b163303156102bc5760405163ea5ceddf60e01b8152600490fd5b60405163e64c17a160e01b8152600490fd5b6104709192506126ca565b1642115f80610207565b60603660031901126103f3576001600160401b03600435116103f3576080600435360360031901126103f3576001600160401b03602435116103f3576080602435360360031901126103f3576044356001600160401b0381116103f357366023820112156103f3576001600160401b038160040135116103f3573660248260040135830101116103f3575a5f80516020613a82833981519152606060405160208152601b60208201527f4d494e543a205374617274696e672067617320616e616c7973697300000000006040820152a166038d7ea4c680003410610f9d575f80516020613aa283398151915260206105b55a5f80516020613a828339815191526060604051858152601e868201527f4d494e543a20416674657220636865636b73202d2067617320757365643a00006040820152a184612ab5565b604051908152a1600a54612710811015610f63575f198114610f4f5760018101600a555f80516020613aa2833981519152602061075e5a5f80516020613a828339815191526080604051858152602c868201527f4d494e543a204265666f726520464845206f7065726174696f6e73202d20676160408201526b39903932b6b0b4b734b7339d60a11b6060820152a18383604051838152a161066461065f36600435600401612a53565b613376565b855f52600d845260405f205583836106d65a80945f80516020613a828339815191526080604051868152602d878201527f4d494e543a204166746572204648452e61734575696e7433322872617269747960408201526c1490169033b0b9903ab9b2b21d60991b6060820152a1612ab5565b604051908152a16106ef61065f36602435600401612a53565b855f52600e845260405f20555a905f80516020613a8283398151915260806040518681526030878201527f4d494e543a204166746572204648452e61734575696e7433322861747472696260408201526f3aba329490169033b0b9903ab9b2b21d60811b6060820152a1612ab5565b604051908152a1610779600b54610773613979565b906133e9565b600b55604051610788816124e8565b5f815260206108076040519261079d846124ba565b60038452606036848601376001600160401b0342166107bb85613a40565b5260056107c785613a61565b525f6107d285613a71565b526108196040519485938493631888debd60e01b855260056004860152601a6024860152608060448601526084850190612590565b83810360031901606485015290612590565b03815f73ea30c4b8b44078bbf8a6ef5b9f1ec1626c7848d95af19081156103fe575f91610f1d575b50815f52601060205260405f2055335f52600f60205261086760405f2054610773613979565b335f52600f60205260405f20555a604051610881816124e8565b5f81523315610f05575f838152600260205260409020546001600160a01b031680610ed2575b335f52600360205260405f2060018154019055835f52600260205260405f20336001600160601b0360a01b8254161790558333827fddf252ad1be2c89b69c2b068fc378daa952ba7f163c4a11628f55a4df523b3ef5f80a4610eba57333b610dc5575b5060206109695f80516020613aa2833981519152925a905f80516020613a828339815191526060604051868152601b878201527f4d494e543a205f736166654d696e74202d2067617320757365643a00000000006040820152a1612ab5565b604051908152a15a92806004013515610d8b5761098e3682600401356024840161255a565b93825f52600660205260405f2085516001600160401b038111610d77576109b582546125e1565b96601f8811610d32575b602097508790601f8311600114610cb157965f80516020613aa283398151915289610ba28297829787610bae986080988e9f5f92610ca6575b50508160011b915f199060031b1c19161790555b7ff8e1a15aba9398e019f0b49df1a4fde98ee17ae345cb5f6b5e2c27f5033e8ce7836040518d8152a18383610a8f5a604051948386526021848701527f4d494e543a20546f6b656e20555249207365747570202d20676173207573656460408701525f80516020613a828339815191528b601d60f91b97886060820152a1612ab5565b604051908152a15a8b5f52600d8452610aab60405f20546132de565b8b5f52600e8452610abf60405f20546132de565b610aca600b546132de565b8b5f5260108452610ade60405f20546132de565b335f52600f8452610af260405f20546132de565b8b5f52600d8452610b073360405f2054613325565b8b5f52600e8452610b1c3360405f2054613325565b610b2833600b54613325565b8b5f5260108452610b3d3360405f2054613325565b335f52600f8452610b523360405f2054613325565b5f80516020613a828339815191525a978893604051908782526021888301527f4d494e543a20464845207065726d697373696f6e73202d20676173207573656460408301526060820152a1612ab5565b604051908152a1612ab5565b5f80516020613a8283398151915260606040518481526015858201527426a4a72a1d102a27aa20a61023a0a9902aa9a2a21d60591b6040820152a1604051908152a17fd35bb95e09c04b219e35047ce7b7b300e3384264ef84a40456943dbc0fc17c1460405185815282600401358682015282600401356024840160408301375f60408460040135830101526040813394601f8019916004013501168101030190a3805f52600d8252807f72ef7f8cb9cb65adcaf6beb70f86294ecca20a29deb833c971fb9bff6f5ae0198360405f2054604051828101918252828152610c9481612503565b519020604051908152a2604051908152f35b015190505f806109f8565b90835f52885f20915f5b601f1985168110610d1b575089610ba25f80516020613aa28339815191529782976001886080988e9f988d98610bae9c601f19811610610d03575b505050811b019055610a0c565b01515f1960f88460031b161c191690555f8080610cf6565b91928a600181928685015181550194019201610cbb565b825f5260205f20601f830160051c81019860208410610d6d575b601f0160051c01975b888110610d6257506109bf565b5f8155600101610d55565b9098508890610d4c565b634e487b7160e01b5f52604160045260245ffd5b60405162461bcd60e51b8152602060048201526012602482015271151bdad95b88155492481c995c5d5a5c995960721b6044820152606490fd5b6020610dff9160405180938192630a85bd0160e11b83523360048401525f60248401528760448401526080606484015260848301906123eb565b03815f335af15f9181610e75575b50610e3f57610e1a612eb9565b80519081610e3a57604051633250574960e11b8152336004820152602490fd5b602001fd5b6001600160e01b03191663757a42ff60e11b01610e5d57602061090a565b604051633250574960e11b8152336004820152602490fd5b9091506020813d602011610eb2575b81610e916020938361251e565b810103126103f357516001600160e01b0319811681036103f3579086610e0d565b3d9150610e84565b6040516339e3563760e11b81525f6004820152602490fd5b5f84815260046020526040902080546001600160a01b0319169055805f52600360205260405f205f1981540190556108a7565b604051633250574960e11b81525f6004820152602490fd5b90506020813d602011610f47575b81610f386020938361251e565b810103126103f3575184610841565b3d9150610f2b565b634e487b7160e01b5f52601160045260245ffd5b60405162461bcd60e51b815260206004820152601260248201527113585e081cdd5c1c1b1e481c995858da195960721b6044820152606490fd5b60405162461bcd60e51b8152602060048201526014602482015273125b9cdd59999a58da595b9d081c185e5b595b9d60621b6044820152606490fd5b346103f35760203660031901126103f357610ff261240f565b610ffa612e19565b6001600160a01b0390811690811561104857600754826001600160601b0360a01b821617600755167f8be0079c531659141344cd1fd0a4f28419497f9722a3daafe3b4186f6b6457e05f80a3005b604051631e4fbdf760e01b81525f6004820152602490fd5b50346103f35761106f3661244f565b906020918281016001600160401b0380611088836126ca565b16151591826111df575b5050610453576110ab61022a61022561022036856126de565b1561041b576001600160a01b03936040820190856110c88361279d565b16156111b9576110e29061028d61022561028836876126de565b1561041b576110f1859161279d565b163303610409575b606081013580611144575b50611142936102ef61112892845f52600286526102ea8360405f20541615156127f0565b5f52600e8152601360405f205491528060405f2055612e45565b005b60808201856111528261279d565b16156103b3576111679186610357879361279d565b03915afa9081156103fe575f91611184575b506103b3575f611104565b90508381813d83116111b2575b61119b818361251e565b810103126103f3576111ac906127e3565b5f611179565b503d611191565b5050836111c58261279d565b163303156110f95760405163ea5ceddf60e01b8152600490fd5b6111ea9192506126ca565b1642115f80611092565b346103f35760403660031901126103f35761120d61240f565b611215612425565b9060018060a01b038091165f52600560205260405f2091165f52602052602060ff60405f2054166040519015158152f35b346103f35760203660031901126103f357600435805f52600260205261127960018060a01b0360405f2054163314612a00565b5f52601360205261031660405f2054612d80565b346103f3576003196040368201126103f3576112a761240f565b90602435906001600160401b0382116103f35760809082360301126103f3576112dc906112d2612e19565b3690600401612a53565b60ff604082015116806113b257507f363eed7cdb0d83be2ee8f8cf5a381a307c10791386e57a7dd427cd0763017d339061131461381b565b506113856113508251602093606060ff8683015116910151906040519261133a846124ba565b8352858301525f6040830152606082015261383f565b6001600160a01b0385165f81815260118552604090208290559490611374906132de565b845f526011835260405f2054613325565b825f526011815260405f20546040518281019182528281526113a681612503565b519020604051908152a2005b604490604051906367cf307160e01b825260048201525f6024820152fd5b346103f3575f3660031901126103f3576020600b54604051908152f35b346103f35760203660031901126103f3576004355f81815260026020526040902054611423906001600160a01b031615156127f0565b5f52600e602052602060405f2054604051908152f35b346103f35760203660031901126103f35761033061145860043561303f565b6040519182916020835260208301906123eb565b346103f35760203660031901126103f3576004355f818152600260205260409020546114a2906001600160a01b031615156127f0565b5f526010602052602060405f2054604051908152f35b346103f3575f3660031901126103f357602060405166038d7ea4c680008152f35b346103f3576020806003193601126103f357601390600435805f526002825261150f60018060a01b0360405f2054163314612a00565b805f52600d825260405f20546012835260405f2055600e825260405f205483835260405f20556012825261154660405f2054612e45565b5f525261114260405f2054612e45565b346103f35760803660031901126103f35761156f61240f565b611577612425565b90604435606435926001600160401b0384116103f35761159e6111429436906004016125c3565b926115aa83838361287f565b33612ee8565b50346103f3576115bf3661244f565b906020918281016001600160401b03806115d8836126ca565b161515918261172d575b5050610453576115fb61022a61022561022036856126de565b1561041b576001600160a01b03936040820190856116188361279d565b1615611707576116329061028d61022561028836876126de565b1561041b57611641859161279d565b163303610409575b606081013580611692575b50611142936102ef61167892845f52600286526102ea8360405f20541615156127f0565b5f52600d8152601260405f205491528060405f2055612e45565b60808201856116a08261279d565b16156103b3576116b59186610357879361279d565b03915afa9081156103fe575f916116d2575b506103b3575f611654565b90508381813d8311611700575b6116e9818361251e565b810103126103f3576116fa906127e3565b5f6116c7565b503d6116df565b5050836117138261279d565b163303156116495760405163ea5ceddf60e01b8152600490fd5b6117389192506126ca565b1642115f806115e2565b346103f35760203660031901126103f357600435805f52600260205261177560018060a01b0360405f2054163314612a00565b5f52600d60205261114260405f205460126020528060405f2055612e45565b346103f35760403660031901126103f3576117ad61240f565b602435908115158092036103f3576001600160a01b031690811561181c57335f52600560205260405f20825f5260205260405f2060ff1981541660ff83161790556040519081527f17307eab39ab6107e8899845ad3d59bd9653f200f220920489ca2b5937696c3160203392a3005b604051630b61174360e31b815260048101839052602490fd5b346103f3575f3660031901126103f3576040515f60018260015492611859846125e1565b92838352602094856001821691825f146118f3575050600114611898575b506118849250038361251e565b6103306040519282849384528301906123eb565b84915060015f527fb10e2d527612073b26eecdfd717e6a320cf44b4afac2b0732d9fcbe2b7fa0cf6905f915b8583106118db575050611884935082010185611877565b805483890185015287945086939092019181016118c4565b60ff19168582015261188495151560051b85010192508791506118779050565b346103f3575f3660031901126103f3576007546040516001600160a01b039091168152602090f35b50346103f3575f3660031901126103f3576119757f0000000000000000000000000000000000000000000000000000000000000000613660565b906103306119a27f000000000000000000000000000000000000000000000000000000000000000061375e565b6119e1604051916119b2836124e8565b5f83526119d3604051968796600f60f81b88528060208901528701906123eb565b9085820360408701526123eb565b904660608501523060808501525f60a085015283820360c0850152612590565b346103f35760203660031901126103f357600435805f526002602052611a3460018060a01b0360405f2054163314612a00565b5f52600e60205261114260405f205460136020528060405f2055612e45565b346103f3575f3660031901126103f357611a6b612e19565b600780546001600160a01b031981169091555f906001600160a01b03167f8be0079c531659141344cd1fd0a4f28419497f9722a3daafe3b4186f6b6457e08280a3005b346103f35760203660031901126103f3576001600160a01b03611acf61240f565b168015611aec575f526003602052602060405f2054604051908152f35b6040516322718ad960e21b81525f6004820152602490fd5b346103f35760203660031901126103f3576020611b22600435612ac2565b6040516001600160a01b039091168152f35b346103f3576020806003193601126103f3576001600160401b036004358181116103f357366023820112156103f357611b7790369060248160040135910161255a565b91611b80612e19565b8251918211610d7757611b94600c546125e1565b601f8111611c57575b50602090601f8311600114611bd9575081925f92611bce575b50505f19600383901b1c191660019190911b17600c55005b015190508280611bb6565b90601f19831693600c5f527fdf6966c971051c3d54ec59162606531493a51404a002842f56009d7e5cf4a8c7925f905b868210611c3f5750508360019510611c27575b505050811b01600c55005b01515f1960f88460031b161c19169055828080611c1c565b80600185968294968601518155019501930190611c09565b600c5f527fdf6966c971051c3d54ec59162606531493a51404a002842f56009d7e5cf4a8c7601f840160051c81019160208510611cb0575b601f0160051c01905b818110611ca55750611b9d565b5f8155600101611c98565b9091508190611c8f565b346103f3575f3660031901126103f3576020600a54604051908152f35b346103f357611142611ce836612485565b9060405192611cf6846124e8565b5f84526115aa83838361287f565b50346103f357611d133661244f565b906020918281016001600160401b0380611d2c836126ca565b1615159182611e66575b505061045357611d4f61022a61022561022036856126de565b1561041b576001600160a01b0393604082019085611d6c8361279d565b1615611e4057611d869061028d61022561028836876126de565b1561041b57611d95859161279d565b163303610409575b606081013580611dcb575b506013936102ef61150f92845f52600286526102ea8360405f20541615156127f0565b6080820185611dd98261279d565b16156103b357611dee9186610357879361279d565b03915afa9081156103fe575f91611e0b575b506103b3575f611da8565b90508381813d8311611e39575b611e22818361251e565b810103126103f357611e33906127e3565b5f611e00565b503d611e18565b505083611e4c8261279d565b16330315611d9d5760405163ea5ceddf60e01b8152600490fd5b611e719192506126ca565b1642115f80611d36565b346103f3575f3660031901126103f357611e93612e19565b478015611eb7576007545f918291829182916001600160a01b031682f1156103fe57005b60405162461bcd60e51b81526020600482015260166024820152754e6f2062616c616e636520746f20776974686472617760501b6044820152606490fd5b346103f35760203660031901126103f3576001600160a01b03611f1661240f565b165f526011602052602060405f2054604051908152f35b346103f35760203660031901126103f357600435805f526002602052611f6060018060a01b0360405f2054163314612a00565b5f52601260205261031660405f2054612d80565b346103f3575f3660031901126103f35760206040516127108152f35b346103f35760203660031901126103f3576004355f81815260026020526040902054611fc6906001600160a01b031615156127f0565b5f52600d602052602060405f2054604051908152f35b346103f357611142611fed36612485565b9161287f565b50346103f3576120023661244f565b906020918281016001600160401b038061201b836126ca565b1615159182612155575b50506104535761203e61022a61022561022036856126de565b1561041b576001600160a01b039360408201908561205b8361279d565b161561212f576120759061028d61022561028836876126de565b1561041b57612084859161279d565b163303610409575b6060810135806120ba575b506012936102ef61030692845f52600286526102ea8360405f20541615156127f0565b60808201856120c88261279d565b16156103b3576120dd9186610357879361279d565b03915afa9081156103fe575f916120fa575b506103b3575f612097565b90508381813d8311612128575b612111818361251e565b810103126103f357612122906127e3565b5f6120ef565b503d612107565b50508361213b8261279d565b1633031561208c5760405163ea5ceddf60e01b8152600490fd5b6121609192506126ca565b1642115f80612025565b346103f35760203660031901126103f3576001600160a01b0361218b61240f565b165f52600f602052602060405f2054604051908152f35b346103f35760403660031901126103f3576121bb61240f565b6024356121c781612ac2565b33151580612270575b80612247575b61222f576001600160a01b039283169282918491167f8c5be1e5ebec7d5bd14f71427d1e84f3dd0314c0f7b2291e5b200ac8c7c3b9255f80a45f90815260046020526040902080546001600160a01b0319169091179055005b60405163a9fbf51f60e01b8152336004820152602490fd5b5060018060a01b0381165f52600560205260405f20335f5260205260ff60405f205416156121d6565b506001600160a01b0381163314156121d0565b346103f35760203660031901126103f3576004356122a081612ac2565b505f526004602052602060018060a01b0360405f205416604051908152f35b346103f3575f3660031901126103f3576040515f805490826122e0836125e1565b91828252602093600190856001821691825f146118f357505060011461230d57506118849250038361251e565b5f808052859250907f290decd9548b62a8d60345a988386fc84ba6bc95484008f6362f93160ef3e5635b85831061234e575050611884935082010185611877565b80548389018501528794508693909201918101612337565b346103f35760203660031901126103f3576004359063ffffffff60e01b82168092036103f357602091632483248360e11b81149081156123a8575b5015158152f35b6380ac58cd60e01b8114915081156123da575b81156123c9575b50836123a1565b6301ffc9a760e01b149050836123c2565b635b5e139f60e01b811491506123bb565b805180835260209291819084018484015e5f828201840152601f01601f1916010190565b600435906001600160a01b03821682036103f357565b602435906001600160a01b03821682036103f357565b35906001600160a01b03821682036103f357565b906003196040818401126103f35760043592602435916001600160401b0383116103f35782610100920301126103f35760040190565b60609060031901126103f3576001600160a01b039060043582811681036103f3579160243590811681036103f3579060443590565b608081019081106001600160401b03821117610d7757604052565b6001600160401b038111610d7757604052565b602081019081106001600160401b03821117610d7757604052565b604081019081106001600160401b03821117610d7757604052565b90601f801991011681019081106001600160401b03821117610d7757604052565b6001600160401b038111610d7757601f01601f191660200190565b9291926125668261253f565b91612574604051938461251e565b8294818452818301116103f3578281602093845f960137010152565b9081518082526020808093019301915f5b8281106125af575050505090565b8351855293810193928101926001016125a1565b9080601f830112156103f3578160206125de9335910161255a565b90565b90600182811c9216801561260f575b60208310146125fb57565b634e487b7160e01b5f52602260045260245ffd5b91607f16916125f0565b600c545f9291612628826125e1565b808252916020906001908181169081156126a5575060011461264b575b50505050565b92939450600c5f527fdf6966c971051c3d54ec59162606531493a51404a002842f56009d7e5cf4a8c7925f935b85851061269257505050602092500101905f808080612645565b8054858501840152938201938101612678565b92505050602093945060ff929192191683830152151560051b0101905f808080612645565b356001600160401b03811681036103f35790565b9190916101009081818503126103f357604051918201906001600160401b039183811083821117610d775760405282946127178261243b565b8452602082013583811681036103f35760208501526127386040830161243b565b6040850152606082013560608501526127536080830161243b565b608085015260a082013560a085015260c08201358381116103f3578161277a9184016125c3565b60c085015260e08201359283116103f35760e09261279892016125c3565b910152565b356001600160a01b03811681036103f35790565b903590601e19813603018212156103f357018035906001600160401b0382116103f3576020019181360383136103f357565b519081151582036103f357565b156127f757565b60405162461bcd60e51b8152602060048201526014602482015273151bdad95b88191bd95cc81b9bdd08195e1a5cdd60621b6044820152606490fd5b1561283a57565b60405162461bcd60e51b815260206004820152601a60248201527f497373756572206d75737420626520746f6b656e206f776e65720000000000006044820152606490fd5b6001600160a01b039182169290918315610f0557815f52602092600284528260409583875f205416953315158061296b575b506002908761293a575b825f5260038152885f2060018154019055835f5252865f20816001600160601b0360a01b825416179055857fddf252ad1be2c89b69c2b068fc378daa952ba7f163c4a11628f55a4df523b3ef5f80a416928383036129195750505050565b6064945051926364283d7b60e01b8452600484015260248301526044820152fd5b5f84815260046020526040812080546001600160a01b03191690558881526003825289902080545f190190556128bb565b91925090806129bf575b15612983579084915f6128b1565b8685876129a0576024915190637e27328960e01b82526004820152fd5b905163177e802f60e01b81523360048201526024810191909152604490fd5b5033861480156129e4575b806129755750845f52600481523384885f20541614612975565b50855f5260058152865f20335f52815260ff875f2054166129ca565b15612a0757565b60405162461bcd60e51b815260206004820152601660248201527513db9b1e481bdddb995c8818d85b88191958dc9e5c1d60521b6044820152606490fd5b359060ff821682036103f357565b91906080838203126103f35760405190612a6c826124ba565b819380358352612a7e60208201612a45565b6020840152612a8f60408201612a45565b60408401526060810135916001600160401b0383116103f35760609261279892016125c3565b91908203918211610f4f57565b5f818152600260205260409020546001600160a01b0316908115612ae4575090565b60249060405190637e27328960e01b82526004820152fd5b604081810180516001600160a01b039391929084168015612b9c575083825116936001600160401b039281846020830151169551169160806060830151920151169183519560208701977f8549e986c64faf9b741179c61561f9d39f337cf9739f86178d84dabc6ca4cad58952858801526060870152608086015260a085015260c084015260c0835260e083019183831090831117610d77575251902090565b93809350825116936001600160401b0392836020820151169460a06060830151916080840151169201519284519660208801987f0ce0d938c38f948b8f9cf16098cd15ec62de132c8d422719ad270c5e2a1011028a52868901526060880152608087015260a086015260c085015260e084015260e0835261010083019183831090831117610d77575251902090565b604290612c366134fc565b906040519161190160f01b8352600283015260228201522090565b9091813b612ca057612c639192613626565b506004811015612c8c57159182612c7957505090565b6001600160a01b03918216911614919050565b634e487b7160e01b5f52602160045260245ffd5b5f918291604051612ce381612cd56020820194630b135d3f60e11b998a875260248401526040604484015260648301906123eb565b03601f19810183528261251e565b51915afa90612cf0612eb9565b82612d18575b82612d0057505090565b9091506020818051810103126103f357602001511490565b915060208251101591612cf6565b60c060a0820151910151602081519101206040519060208201927f82af07a6c9eb6bb31a0c86f7f5cad0039589750ad5b4b925ed5741f7ad4e8d4b84526040830152606082015260608152612d7a816124ba565b51902090565b90604080519263458693c960e01b84526004840152808360248173ea30c4b8b44078bbf8a6ef5b9f1ec1626c7848d95afa928315612e0f575f915f94612dcd575b505063ffffffff169190565b8194508092503d8311612e08575b612de5818361251e565b810103126103f35763ffffffff612e006020845194016127e3565b92905f612dc1565b503d612ddb565b50513d5f823e3d90fd5b6007546001600160a01b03163303612e2d57565b60405163118cdaa760e01b8152336004820152602490fd5b8015612eab575b73ea30c4b8b44078bbf8a6ef5b9f1ec1626c7848d9803b156103f357604051630828982760e01b815260048101929092523360248301525f908290818381604481015b03925af180156103fe57612ea05750565b612ea9906124d5565b565b50612eb4613a0e565b612e4c565b3d15612ee3573d90612eca8261253f565b91612ed8604051938461251e565b82523d5f602084013e565b606090565b9291803b612ef8575b5050505050565b604051630a85bd0160e11b8082526001600160a01b03958616600483015292851660248201526044810193909352608060648401529092169260209082908190612f469060848301906123eb565b03815f875af15f9181612fbd575b50612f8b5782612f62612eb9565b8051919082612f8457604051633250574960e11b815260048101839052602490fd5b6020915001fd5b6001600160e01b03191603612fa557505f80808080612ef1565b60249060405190633250574960e11b82526004820152fd5b9091506020813d602011612ffa575b81612fd96020938361251e565b810103126103f357516001600160e01b0319811681036103f357905f612f54565b3d9150612fcc565b9190612ea99060405180946020928382819351918291018486015e8301908282015f8152815193849201905e015f8382015203808552018361251e565b61304881612ac2565b50805f52602060068152604090815f209282515f948181549661306a886125e1565b92838352600198876001821691825f146132be575050600114613280575b506130959250038261251e565b83516130ab816130a481612619565b038261251e565b8051156132775781516132685750506130c381612ac2565b508251936130db856130d481612619565b038661251e565b845115613253578180935f917a184f03e93ff9f4daa797ed6e38ed64bf6a1f0100000000000000009081811015613246575b50506d04ee2d6d415b85acef810000000080861015613239575b50662386f26fc100008086101561322a575b506305f5e1008086101561321b575b506127108086101561320c575b5060648510156131fa575b90602191600a809610156131f0575b9083949392916001820161318e6131858261253f565b9951998a61251e565b80895261319d601f199161253f565b01903690890137860101905b6131bb575b505050506125de91613002565b5f19019083906f181899199a1a9b1b9c1cb0b131b232b360811b8282061a8353049182156131eb579190826131a9565b6131ae565b906001019061316f565b60026064602193960495019150613160565b6004919295049401905f613155565b6008919295049401905f613148565b6010919295049401905f613139565b819295049401905f613127565b0494508591505f8061310d565b505050905051613262816124e8565b5f815290565b92509250506125de9250613002565b50935050505090565b9150505f528184805f20885f915b8583106132a557505061309593508201015f613088565b809192945054838588010152019101859088859361328e565b60ff19168582015261309595151560051b85010192505f91506130889050565b73ea30c4b8b44078bbf8a6ef5b9f1ec1626c7848d9803b156103f357604051631974142760e21b815260048101929092523060248301525f90829081838160448101612e8f565b73ea30c4b8b44078bbf8a6ef5b9f1ec1626c7848d991823b156103f357604051631974142760e21b815260048101929092526001600160a01b03166024820152905f90829081838160448101612e8f565b60ff604082015116600481036133ca57506125de9061339361381b565b50805190606060ff60208301511691015190604051926133b2846124ba565b8352602083015260046040830152606082015261383f565b604490604051906367cf307160e01b8252600482015260046024820152fd5b80156134ee575b81156134de575b604091825191606083018381106001600160401b03821117610d77578452600283528336602085013761342983613a40565b5261343382613a61565b526020610807835192613445846124e8565b5f845261347a85519485938493631888debd60e01b855260048086015260086024860152608060448601526084850190612590565b03815f73ea30c4b8b44078bbf8a6ef5b9f1ec1626c7848d95af19182156134d557505f916134a6575090565b90506020813d6020116134cd575b816134c16020938361251e565b810103126103f3575190565b3d91506134b4565b513d5f823e3d90fd5b90506134e8613a0e565b906133f7565b506134f7613a0e565b6133f0565b307f00000000000000000000000000000000000000000000000000000000000000006001600160a01b031614806135fd575b15613557577f000000000000000000000000000000000000000000000000000000000000000090565b60405160208101907f8b73c3c69bb8fe3d512ecc4cf759cc79239f7b179b0ffacaa9a75d522b39400f82527f000000000000000000000000000000000000000000000000000000000000000060408201527f000000000000000000000000000000000000000000000000000000000000000060608201524660808201523060a082015260a0815260c081018181106001600160401b03821117610d775760405251902090565b507f0000000000000000000000000000000000000000000000000000000000000000461461352e565b81519190604183036136565761364f9250602082015190606060408401519301515f1a906138f7565b9192909190565b50505f9160029190565b60ff811461369e5760ff811690601f821161368c576040519161368283612503565b8252602082015290565b604051632cd44ac360e21b8152600490fd5b50604051600854815f6136b0836125e1565b8083529260209060019081811690811561373a57506001146136db575b50506125de9250038261251e565b91509260085f527ff3f7a9fe364faab93b216da50a3214154f22a0a2b415b23a84c8169e8b636ee3935f925b82841061372257506125de9450505081016020015f806136cd565b85548785018301529485019486945092810192613707565b915050602092506125de94915060ff191682840152151560051b8201015f806136cd565b60ff81146137805760ff811690601f821161368c576040519161368283612503565b50604051600954815f613792836125e1565b8083529260209060019081811690811561373a57506001146137bc5750506125de9250038261251e565b91509260095f527f6e1540171b6c0c960b71a7020d9f60077f6af931a8bbf590da0223dacf75c7af935f925b82841061380357506125de9450505081016020015f806136cd565b855487850183015294850194869450928101926137e8565b60405190613828826124ba565b606080835f81525f60208201525f60408201520152565b602060606138939260405193849283926313fce3b160e11b8452604060048501528051604485015260ff8682015116606485015260ff60408201511660848501520151608060a484015260c48301906123eb565b33602483015203815f73ea30c4b8b44078bbf8a6ef5b9f1ec1626c7848d95af19081156103fe575f916134a6575090565b90916138e96125de9360048452601a6020850152608060408501526080840190612590565b916060818403910152612590565b91907f7fffffffffffffffffffffffffffffff5d576e7357a4501ddfe92f46681b20a0841161396e579160209360809260ff5f9560405194855216868401526040830152606082015282805260015afa156103fe575f516001600160a01b0381161561396457905f905f90565b505f906001905f90565b5050505f9160039190565b6139e3602060405161398a816124e8565b5f81526040519061399a826124ba565b600382526060368484013760016139b083613a40565b5260046139bc83613a61565b525f6139c783613a71565b52604051631888debd60e01b81529384928392600484016138c4565b03815f73ea30c4b8b44078bbf8a6ef5b9f1ec1626c7848d95af19081156103fe575f916134a6575090565b6139e36020604051613a1f816124e8565b5f815260405190613a2f826124ba565b60038252606036848401375f6139b0835b805115613a4d5760200190565b634e487b7160e01b5f52603260045260245ffd5b805160011015613a4d5760400190565b805160021015613a4d576060019056fe4be5e2ddd7b814bfc07153581bbbda6ea3d62d61c270f9788cae2f0297e18ae84ddb9aa59cdc255c966992729b4b5aa3a0d737e47b6a24f59358562631fa7ee6a2646970667358221220eba1ec791e09f58f1f409dce5ca008ec15f7a0a609bad369a6d1c8ef74b6badb64736f6c63430008190033",
  "linkReferences": {},
  "deployedLinkReferences": {}
}